:0600000009C0FECFFDCF98
:10000600FCCFFBCFFACFF9CFF8CFF7CFF6CFF894E6
:10001600EE27ECBBE5BFF8E1A4B7A77FA4BFF1BD0F
:10002600E1BD8DE0A2E0ED938A95E9F780E4A0E6D4
:10003600ED938A95E9F7EFE9EDBFC0E700C0E0E888
:10004600E6BDE0E0E6BDE8BBB9D0E0E0EFBDE3BF6A
:10005600E2BFE6BFE9BDEBBFE5BFE9BFE0E8E8B94F
:10006600E0E0E3B9E4BBE4B3E370E4BBE4B3E4BBD0
:10007600E0E2E7B9E7EAE6B9E3B1E87FE3B99ED0A3
:10008600C198C09AC29820E030E040E050E0A4E079
:10009600B0E0C9D0EB3161F094D0E2E0F0E0CED030
:1000A60093D0E6E2F2E0CAD0A4E0B0E0EBE1CED035
:1000B600E4EFF1E08CD035D081D08CD0B29BFECF6E
:1000C60000E010E0B29B02C08DD0FCCF77D090D07C
:1000D600A4F42330E0E03E0714F42F5F3F4FE2E044
:1000E600F0E0E217F30749F440E050E0C098C19A07
:1000F6006BD095D06CD0C1987FD07AD06CF043305D
:10010600E0E05E0714F44F5F5F4FE2E0F0E0E417D3
:10011600F50711F420E030E0E4E6F0E058D0CDCF6A
:10012600FFCFA4D000E010E049D062D04CF552D009
:10013600B29BFECF00E010E0B29B02C053D0FCCFD2
:100146003DD056D0E4F45CD0319678D0319758D073
:10015600349724F036D0E1E0F0E070D021E030E0D2
:100166004FD0E217F30744F0C098E4E6F0E02FD052
:1001760043D02F5F3F4FF4CFE0EDF7E028D0D5CF47
:100186003FD0E130A0E0FA0721F41ED0EEE5F1E021
:1001960055D036D0E230A0E0FA0721F415D0E6E2D9
:1001A600F2E04CD02DD0E330A0E0FA0721F40CD0D9
:1001B600E6EBF3E043D05FD024960895E7E0E7BB93
:1001C6000895A0E0B0E00895A2E0B0E00895FA93A3
:1001D600EA9319C0C29A80E48A95F1F7C298E3E0DF
:1001E600E7BB08950F5F1F4F80E28A95F1F70895E8
:1001F6000436E0E01E070895C09AE4E6F0E0E7CF93
:10020600E0DF0DD00895E991F991309639F080E656
:1002160099E00197F1F7A8953197C9F708951196D6
:1002260002D0FE2F1197E199FECFFF93FFB7F89406
:10023600AEBBE09AEDB3FFBFFF91089507D01196CC
:10024600EF93EF2F03D0EF9111970895E19B02C032
:10025600A895FCCF9FB7F894AEBBE09A8DB3E8178C
:1002660019F0EDBBE29AE19A9FBF08953A932A935B
:100276001A930A9308953B812A811981088108956A
:00000001FF
